:100000000C9434000C94E3010C9451000C945100B6
:100010000C94F8010C9451000C9451000C94510074
:100020000C9451000C9451000C9451000C9451000C
:100030000C9451000C9451000C9451000C945100FC
:100040000C9451000C9451000C9451000C945100EC
:100050000C9451000C9486040C9451000C945100A3
:100060000C9451000C94510011241FBECFEFD8E026
:10007000DEBFCDBF11E0A0E0B1E0E0E8F5E102C0F5
:1000800005900D92A634B107D9F721E0A6E4B1E0BE
:1000900001C01D92AB35B207E1F70E94B9000C9484
:1000A000BE0A0C940000F89417B8E9E6F0E010825C
:1000B0008081826080831DBA8DB381608DBBE8E64C
:1000C000F0E01082808182608083ECE6F0E0808145
:1000D0008F60808378940895ACE7B0E01C92EAE7E3
:1000E000F0E010828C9180648C938C9180628C9370
:1000F00010828081886880838081876080831092ED
:100100007B0008958AB18E7F8AB98AB182608AB9EC
:10011000E0ECF0E01082808182608083E1ECF0E02E
:100120001082808188698083E2ECF0E01082808117
:10013000866080838FEC90E09093C5008093C4002C
:100140000895AC0120E007C09091C00095FFFCCF5E
:100150003093C6002F5FFA01E20FF11D308131119B
:10016000F3CF08958091C0008823E4F78091C60002
:100170000895CF93DF93CDB7DEB760970FB6F894AD
:10018000DEBF0FBECDBFE1E6F0E080E8808381E016
:100190008083F8940E94820060E074E080E00E9416
:1001A000D10460E074E080E00E9444050E946C008D
:1001B0000E94530078941FBAEAE7F0E080818064DF
:1001C000808380915801811168C08BB1877F8BB982
:1001D0008BB18F7E8BB960915401809155010E9443
:1001E000A50560915201809153010E9413058091F1
:1001F00052011F928F9380E091E09F938F931F9203
:100200006894FF24F4F8FF928E010F5F1F4F1F9335
:100210000F930E94B007C8010E94A1008091530172
:100220001F928F938BE091E09F938F931F92FF9289
:100230001F930F930E94B007C8010E94A1008091F4
:1002400054011F928F9386E191E09F938F931F92A9
:10025000FF921F930F930E94B007C8010E94A10054
:10026000809155011F928F9381E291E09F938F932C
:100270001F92FF921F930F930E94B0070FB6F8943E
:10028000DEBF0FBECDBFC8010E94A1008FE39CE975
:100290000197F1F700C000008FCF813039F48BB1A6
:1002A00080618BB98BB1877F8BB986CF823069F43F
:1002B0008BB188608BB98BB18F7E8BB98FE39CE952
:1002C0000197F1F700C0000077CF833009F074CFB9
:1002D0008BB188618BB98CE291E00E94A100809182
:1002E000C00088230CF062C006C087019FE0E916B9
:1002F000F1041CF011C000E010E078018FEFE81A63
:10030000F80A0E94B200E1E0F0E0EC0FFD1FE00F00
:10031000F11F80838A3049F7E1E0F0E0EC0FFD1F28
:10032000EE0DFF1D108245E050E06EE271E0CE015F
:1003300001960E949A07892B39F0CE0106960E94F9
:100340007C0780934B0132C045E050E064E371E0EC
:10035000CE0101960E949A07892B39F0CE010696AC
:100360000E947C0780934A0121C045E050E06AE387
:1003700071E0CE0101960E949A07892B39F0CE01D7
:1003800006960E947C078093490110C045E050E02A
:1003900060E471E0CE0101960E949A07892B31F04A
:1003A000CE0106960E947C078093480160914A0125
:1003B00080914B010E94A5056091480180914901FF
:1003C0000E941305F9CE1F920F920FB60F921124BF
:1003D0008F93809158018F5F80935801843010F083
:1003E000109258018F910F900FBE0F901F9018958B
:1003F0001F920F920FB60F9211242F933F934F939A
:100400005F936F937F938F939F93AF93BF93CF939C
:10041000DF93EF93FF9386B18F7080935701909194
:10042000560191115EC29091580191509230B8F5E9
:100430008E3061F48BB180688BB981E08093470185
:10044000809156018F5F8093560129C08D3061F4F1
:100450008BB18F778BB982E08093470180915601F1
:100460008F5F809356011BC08B3061F485B1816032
:1004700085B983E080934701809156018F5F809317
:1004800056010DC0873059F485B18E7F85B984E05F
:1004900080934701809156018F5F80935601809130
:1004A0005801813009F016C1F894809147018230DB
:1004B00009F44DC018F4813041F015C2833009F4BD
:1004C0008BC0843009F4CDC00EC21092510110923D
:1004D00050016091550180E090E00E94790A80917E
:1004E00050019091510101969093510180935001D8
:1004F000609154010E94790A8091500190915101BC
:1005000001969093510180935001609153010E9494
:10051000790A809150019091510101969093510177
:1005200080935001609152010E94790A109251010A
:1005300010925001D8C180915001909151010196C3
:1005400090935101809350012F5F3F4F02C020E0F4
:1005500030E0253031057CF36091550180915001E8
:10056000909151010E94790A80915001909151011E
:1005700001969093510180935001609154010E9423
:10058000790A809150019091510101969093510107
:1005900080935001609153010E94790A809150012B
:1005A0009091510101969093510180935001609177
:1005B00052010E94790A109251011092500193C188
:1005C0008091500190915101019690935101809337
:1005D00050012F5F3F4F02C020E030E0293031054D
:1005E0007CF36091550180915001909151010E94DE
:1005F000790A809150019091510101969093510197
:1006000080935001609154010E94790A80915001B9
:100610009091510101969093510180935001609106
:1006200053010E94790A80915001909151010196E5
:100630009093510180935001609152010E94790A78
:1006400010925101109250014EC180915001909131
:100650005101019690935101809350012F5F3F4FBC
:1006600002C020E030E02D3031057CF3609155016F
:1006700080915001909151010E94790A809150011E
:100680009091510101969093510180935001609196
:1006900054010E94790A8091500190915101019674
:1006A0009093510180935001609153010E94790A07
:1006B0008091500190915101019690935101809346
:1006C0005001609152010E94790A109251011092DA
:1006D000500109C1823009F006C1F89480914701A8
:1006E000823009F444C018F4813041F0EAC083300C
:1006F00009F47AC0843009F4B4C0E3C01092510107
:100700001092500180E090E00E94710A80934F01A6
:1007100081E090E090935101809350010E94710A12
:1007200080934E0182E090E09093510180935001BC
:100730000E94710A80934D0183E090E090935101F3
:10074000809350010E94710A80934C0110925101D4
:1007500010925001B6C080915001909151010196C4
:1007600090935101809350012F5F3F4F02C020E0D2
:1007700030E0253031057CF3C0915001D09151011A
:10078000CE010E94710A80934F012196D0935101AE
:10079000C0935001CE010E94710A80934E012196B0
:1007A000D0935101C0935001CE010E94710A8093F1
:1007B0004D01CE01019690935101809350010E940A
:1007C000710A80934C01109251011092500179C02E
:1007D0008091500190915101019690935101809325
:1007E00050012F5F3F4F02C020E030E0293031053B
:1007F0007CF3C0915001D0915101CE010E94710A49
:1008000080934F012196D0935101C0935001CE01A6
:100810000E94710A80934E012196D0935101C0939A
:100820005001CE010E94710A80934D01CE010196C4
:1008300090935101809350010E94710A80934C0162
:1008400010925101109250013CC080915001909142
:100850005101019690935101809350012F5F3F4FBA
:1008600002C020E030E02D3031057CF3C091500112
:10087000D0915101CE010E94710A80934F012196BF
:10088000D0935101C0935001CE010E94710A809310
:100890004E012196D0935101C0935001CE010E9488
:1008A000710A80934D01CE0101969093510180937E
:1008B00050010E94710A80934C01109251011092D4
:1008C0005001789460914E0180914F010E94A505DE
:1008D00060914C0180914D010E94130510924701D7
:1008E00002C010925601FF91EF91DF91CF91BF911D
:1008F000AF919F918F917F916F915F914F913F91B8
:100900002F910F900FBE0F901F9018951F920F926E
:100910000FB60F9211248F93EF93FF9380917C0079
:100920008F7080934601873059F4809179008093CD
:100930005501ECE7F0E08081807F8660808324C0F1
:10094000863059F48091790080935401ECE7F0E00F
:100950008081807F8560808317C0853059F48091C5
:10096000790080935301ECE7F0E08081807F846020
:1009700080830AC08091790080935201ECE7F0E017
:100980008081807F87608083EAE7F0E080818061FA
:100990008083FF91EF918F910F900FBE0F901F906A
:1009A00018959AB190669AB914BC15BC813039F487
:1009B00084B5806C84BD84B5806384BD06C084B575
:1009C000806884BD84B5806284BD84B5836084BD45
:1009D00060347105C1F038F46115710561F068305B
:1009E000710569F01CC0611581E0780781F061151F
:1009F000744089F014C085B5816085BD089585B5C2
:100A0000826085BD089585B5836085BD089585B5EF
:100A1000846085BD089585B5856085BD089585B5DB
:100A2000816085BD0895CF93DF93C62F682F70E056
:100A300080E090E00E94830629E23CE54FE05DE320
:100A40000E940F0724EA30E745E950E40E94E605DA
:100A50000E945206D62F6C2F70E080E090E00E943A
:100A600083062BE13FE24DED5CE30E940F0724EA91
:100A700030E745E950E40E94E6050E945206D7BDE2
:100A800068BDDF91CF91089594B1966094B91092AA
:100A9000800010928100813049F4E0E8F0E080812C
:100AA000806C808380818063808308C0E0E8F0E010
:100AB000808180688083808180628083603471055A
:100AC000E1F038F46115710561F06830710579F075
:100AD00026C0611581E07807B1F061157440C9F056
:100AE0001EC0E1E8F0E08081816080831DC0E1E804
:100AF000F0E080818260808317C0E1E8F0E08081CF
:100B00008360808311C0E1E8F0E0808184608083AD
:100B10000BC0E1E8F0E080818560808305C0E1E8FA
:100B2000F0E0808181608083E0E8F0E08081826095
:100B30008083E1E8F0E080818860808380EA90E053
:100B400090938700809386000895CF93DF93D62FEC
:100B5000682F70E080E090E00E9483062BE13FE286
:100B60004DED5CE30E940F0728EB3EE145E950E4C0
:100B70000E94E6050E945206C62F60935A016D2F0F
:100B800070E080E090E00E9483062BE13FE24DEDB3
:100B90005CE30E940F0728EB3EE145E950E40E9428
:100BA000E6050E945206609359016C2F70E0709325
:100BB0008900609388008091590190E090938B00A8
:100BC00080938A00DF91CF9108955058BB27AA27C0
:100BD0000E94FD050C94D5060E94C70638F00E94BD
:100BE000CE0620F039F49F3F19F426F40C94C40685
:100BF0000EF4E095E7FB0C94BE06E92F0E94E60692
:100C000058F3BA17620773078407950720F079F441
:100C1000A6F50C9408070EF4E0950B2EBA2FA02D24
:100C20000B01B90190010C01CA01A0011124FF2799
:100C3000591B99F0593F50F4503E68F11A16F04094
:100C4000A22F232F342F4427585FF3CF4695379593
:100C50002795A795F0405395C9F77EF41F16BA0B58
:100C6000620B730B840BBAF09150A1F0FF0FBB1F06
:100C7000661F771F881FC2F70EC0BA0F621F731F4F
:100C8000841F48F4879577956795B795F7959E3FAC
:100C900008F0B0CF9395880F08F09927EE0F97953D
:100CA000879508950E94EE0688F09F5798F0B92F17
:100CB0009927B751B0F0E1F0660F771F881F991F91
:100CC0001AF0BA95C9F714C0B13091F00E94080724
:100CD000B1E008950C940807672F782F8827B85F34
:100CE00039F0B93FCCF3869577956795B395D9F7E9
:100CF0003EF490958095709561957F4F8F4F9F4FF3
:100D00000895E89409C097FB3EF4909580957095FE
:100D100061957F4F8F4F9F4F9923A9F0F92F96E947
:100D2000BB279395F695879577956795B795F111BC
:100D3000F8CFFAF4BB0F11F460FF1BC06F5F7F4F59
:100D40008F4F9F4F16C0882311F096E911C077236B
:100D500021F09EE8872F762F05C0662371F096E874
:100D6000862F70E060E02AF09A95660F771F881F43
:100D7000DAF7880F9695879597F9089597F99F6701
:100D800080E870E060E008959FEF80EC0895002413
:100D90000A941616170618060906089500240A94E0
:100DA00012161306140605060895092E0394000C66
:100DB00011F4882352F0BB0F40F4BF2B11F460FFF5
:100DC00004C06F5F7F4F8F4F9F4F089557FD90581E
:100DD000440F551F59F05F3F71F04795880F97FBFF
:100DE000991F61F09F3F79F08795089512161306B9
:100DF0001406551FF2CF4695F1DF08C016161706E8
:100E00001806991FF1CF869571056105089408951C
:100E1000E894BB2766277727CB0197F908950E94AE
:100E200022070C94D5060E94C70638F00E94CE0611
:100E300020F0952311F00C94BE060C94C4061124E6
:100E40000C9409070E94E60670F3959FC1F3950F75
:100E500050E0551F629FF001729FBB27F00DB11D3E
:100E6000639FAA27F00DB11DAA1F649F6627B00DCE
:100E7000A11D661F829F2227B00DA11D621F739FB7
:100E8000B00DA11D621F839FA00D611D221F749FC5
:100E90003327A00D611D231F849F600D211D822F0C
:100EA000762F6A2F11249F5750409AF0F1F0882333
:100EB0004AF0EE0FFF1FBB1F661F771F881F915060
:100EC0005040A9F79E3F510580F00C94BE060C944B
:100ED00009075F3FE4F3983ED4F3869577956795CD
:100EE000B795F795E7959F5FC1F7FE2B880F911D8A
:100EF0009695879597F90895FC0188279927E89496
:100F000021912032E9F3293010F02E30C8F32B3232
:100F100041F02D3239F4689404C00E94A807820F72
:100F2000911D219120532A30C0F31EF49095819594
:100F30009F4F0895FB01DC014150504030F08D91EE
:100F40000190801919F40020B9F7881B990B0895B6
:100F50007AE0979F902D879F802D910D1124089501
:100F6000AEE0B0E0E6EBF7E00C94950A0D891E893F
:100F70008F89988D26E02C831A83098397FF02C0FE
:100F800080E090E801979E838D83AE01455E5F4FC0
:100F9000698D7A8DCE0101960E94E0074D815E81B8
:100FA00057FD0AC02F813885421753070CF49A0168
:100FB000F801E20FF31F10822E96E4E00C94B10AC0
:100FC000ABE0B0E0E6EEF7E00C94870A6C017B0141
:100FD0008A01FC0117821682838181FFCCC1CE0178
:100FE00001963C01F6019381F70193FD859193FFF2
:100FF00081917F01882309F4BAC1853239F493FDC8
:10100000859193FF81917F01853229F4B60190E0AB
:101010000E94D709E7CF912C212C312CFFE1F31549
:10102000D8F08B3279F038F4803279F08332A1F441
:10103000232D20611DC08D3261F0803369F4232D92
:10104000216016C0832D8260382EE32DE4603E2E91
:101050002AC0F32DF8601DC037FC2DC020ED280FED
:101060002A3040F08E32B9F436FC81C1232D206441
:10107000322E19C036FE06C08AE0989E200D11243B
:10108000922E11C0EAE02E9E200D1124222EF32D67
:10109000F0623F2E08C08C3621F4832D8068382EF4
:1010A00002C0883641F4F70193FD859193FF819149
:1010B0007F018111B3CF982F9F7D9554933028F4F1
:1010C0000C5F1F4F9FE399830DC0833631F0833748
:1010D00071F0833509F059C021C0F80180818983FE
:1010E0000E5F1F4F88248394912C530113C0280155
:1010F000F2E04F0E511CF801A080B18036FE03C013
:10110000692D70E002C06FEF7FEFC5010E94CC092E
:101110004C018201F32DFF773F2E16C0280122E0FB
:10112000420E511CF801A080B18036FE03C0692D2B
:1011300070E002C06FEF7FEFC5010E94C1094C0152
:10114000F32DF0683F2E820133FC1BC0822D90E00E
:1011500088169906B0F4B60180E290E00E94D709A3
:101160002A94F4CFF50137FC859137FE81915F0118
:10117000B60190E00E94D70921102A9421E0821A3A
:1011800091088114910471F7E8C0843611F0893612
:1011900041F5F80137FE07C060817181828193813A
:1011A0000C5F1F4F08C060817181072E000C880BF7
:1011B000990B0E5F1F4FF32DFF763F2E97FF09C04F
:1011C00090958095709561957F4F8F4F9F4FF068F8
:1011D0003F2E2AE030E0A3010E94130A882E8618D1
:1011E00045C0853731F4232D2F7EB22E2AE030E022
:1011F00025C0932D997FB92E8F36C1F018F488350C
:1012000079F0B5C0803719F0883721F0B0C0E92FE8
:10121000E061BE2EB4FE0DC0FB2DF460BF2E09C0F0
:1012200034FE0AC0292F2660B22E06C028E030E026
:1012300005C020E130E002C020E132E0F801B7FE55
:1012400007C060817181828193810C5F1F4F06C04E
:101250006081718180E090E00E5F1F4FA3010E94CA
:10126000130A882E8618FB2DFF773F2E36FE0DC001
:10127000232D2E7FA22E891458F434FE0BC032FC8D
:1012800009C0832D8E7EA82E05C0B82CA32C03C0C8
:10129000B82C01C0B92CA4FE0FC0FE01E80DF11D51
:1012A0008081803321F49A2D997EA92E09C0A2FE57
:1012B00006C0B394B39404C08A2D867809F0B39421
:1012C000A3FC11C0A0FE06C0B21488F4280C922C16
:1012D0009B180EC0B21460F4B60180E290E00E9448
:1012E000D709B394F7CFB21418F42B1802C0982C76
:1012F000212CA4FE10C0B60180E390E00E94D70923
:10130000A2FE17C0A1FC03C088E790E002C088E5F8
:1013100090E0B6010CC08A2D867859F0A1FE02C07B
:101320008BE201C080E2A7FC8DE2B60190E00E9452
:10133000D709891438F4B60180E390E00E94D709F8
:101340009A94F7CF8A94F301E80DF11D8081B601DC
:1013500090E00E94D7098110F5CF222009F442CEF7
:10136000B60180E290E00E94D7092A94F6CFF601F8
:101370008681978102C08FEF9FEF2B96E2E10C945C
:10138000A30AFC010590615070400110D8F78095C8
:1013900090958E0F9F1F0895FC0161507040019041
:1013A0000110D8F7809590958E0F9F1F08950F9389
:1013B0001F93CF93DF93FB01238121FD03C08FEFA8
:1013C0009FEF2CC022FF16C04681578124813581B2
:1013D0004217530744F4A081B1819D012F5F3F4F15
:1013E000318320838C93268137812F5F3F4F378352
:1013F000268314C08B01EC01FB010084F185E02DF4
:101400000995892BE1F6D80116968D919C91179735
:10141000019617969C938E931697CE01DF91CF91EC
:101420001F910F910895FA01AA27283051F1203118
:1014300081F1E8946F936E7F6E5F7F4F8F4F9F4F68
:10144000AF4FB1E03ED0B4E03CD0670F781F891FAA
:101450009A1FA11D680F791F8A1F911DA11D6A0F78
:10146000711D811D911DA11D20D009F468943F912B
:101470002AE0269F11243019305D3193DEF6CF012A
:101480000895462F4770405D4193B3E00FD0C9F7F0
:10149000F6CF462F4F70405D4A3318F0495D31FD5D
:1014A0004052419302D0A9F7EACFB4E0A6959795B0
:1014B000879577956795BA95C9F700976105710586
:1014C00008959B01AC010A2E0694579547953795D0
:1014D0002795BA95C9F7620F731F841F951FA01D2A
:1014E0000895F999FECF92BD81BDF89A992780B5EC
:1014F0000895262FF999FECF1FBA92BD81BD20BD58
:101500000FB6F894FA9AF99A0FBE019608952F92A1
:101510003F924F925F926F927F928F929F92AF9283
:10152000BF92CF92DF92EF92FF920F931F93CF93D0
:10153000DF93CDB7DEB7CA1BDB0B0FB6F894DEBF67
:101540000FBECDBF09942A88398848885F846E848D
:101550007D848C849B84AA84B984C884DF80EE80D7
:10156000FD800C811B81AA81B981CE0FD11D0FB6E0
:10157000F894DEBF0FBECDBFED010895F894FFCF04
:101580003020504F54313A25640A003020504F54D7
:10159000323A25640A003020504F54333A25640A09
:1015A000003020504F54343A25640A003300504F25
:1015B00054313A00504F54323A00504F54333A00AD
:0615C000504F54343A00C4
:00000001FF
