:100000000C9434000C9418010C9451000C94510081
:100010000C942D010C9451000C9451000C9451003F
:100020000C9451000C9451000C9451000C9451000C
:100030000C9451000C9451000C9451000C945100FC
:100040000C9451000C9451000C9451000C945100EC
:100050000C9451000C94CF030C9451000C9451005B
:100060000C9451000C94510011241FBECFEFD8E026
:10007000DEBFCDBF11E0A0E0B1E0EAEBFDE002C0E1
:1000800005900D92A83CB107D9F721E0A8ECB1E0AA
:1000900001C01D92A93DB207E1F70E94B2000C9485
:1000A000DB060C940000F89417B8E9E6F0E0108243
:1000B0008081826080831DBA8DB381608DBBE8E64C
:1000C000F0E01082808182608083ECE6F0E0808145
:1000D0008F60808378940895ACE7B0E01C92EAE7E3
:1000E000F0E010828C9180648C938C9180628C9370
:1000F00010828081886880838081876080831092ED
:100100007B0008958AB18E7F8AB98AB182608AB9EC
:10011000E0ECF0E01082808182608083E1ECF0E02E
:100120001082808188698083E2ECF0E01082808117
:10013000866080838FEC90E09093C5008093C4002C
:100140000895AC0120E007C09091C00095FFFCCF5E
:100150003093C6002F5FFA01E20FF11D308131119B
:10016000F3CF0895E1E6F0E080E8808381E08083CA
:10017000F8940E94820060E074E080E00E941A041B
:1001800060E074E080E00E948D040E946C000E9498
:10019000530078941FBAEAE7F0E08081806480839E
:1001A0008091D601811119C08BB1877F8BB98BB13A
:1001B0008F7E8BB96091D2018091D3010E94EE04B1
:1001C0006091D0018091D1010E945C048FE39CE991
:1001D0000197F1F700C00000DECF813039F48BB118
:1001E00080618BB98BB1877F8BB9D5CF8230C9F451
:1001F0008BB188608BB98BB18F7E8BB96091CC014C
:100200008091CD010E94EE046091CA018091CB01E2
:100210000E945C048FE39CE90197F1F700C00000A5
:10022000BACF833009F0B7CF8BB188618BB9B3CF28
:100230001F920F920FB60F9211248F938091D601C7
:100240008F5F8093D601843010F01092D6018F9189
:100250000F900FBE0F901F9018951F920F920FB620
:100260000F9211242F933F934F935F936F937F933C
:100270008F939F93AF93BF93CF93DF93EF93FF93AE
:1002800086B18F708093D5019091D401911172C283
:100290009091D60191509230B8F58E3061F48BB1C7
:1002A00080688BB981E08093C9018091D4018F5F10
:1002B0008093D40129C08D3061F48BB18F778BB9D5
:1002C00082E08093C9018091D4018F5F8093D40133
:1002D0001BC08B3061F485B1816085B983E0809368
:1002E000C9018091D4018F5F8093D4010DC0873004
:1002F00059F485B18E7F85B984E08093C9018091DE
:10030000D4018F5F8093D4018091D601813009F0B0
:1003100026C1F8948091C901823009F451C018F4C3
:10032000813041F029C2833009F493C0843009F44C
:10033000D9C022C21092CF011092CE016091D30198
:1003400080E090E00E94CD068091CE019091CF0197
:1003500001969093CF018093CE016091D2010E94CB
:10036000CD068091CE019091CF0101969093CF015F
:100370008093CE016091D1010E94CD068091CE0183
:100380009091CF0101969093CF018093CE0160911F
:10039000D0010E94CD061092CF011092CE0180E0D4
:1003A00091E00E94A100E8C18091CE019091CF011F
:1003B00001969093CF018093CE012F5F3F4F02C0F3
:1003C00020E030E0253031057CF36091D30180914D
:1003D000CE019091CF010E94CD068091CE019091E7
:1003E000CF0101969093CF018093CE016091D2010D
:1003F0000E94CD068091CE019091CF0101969093FD
:10040000CF018093CE016091D1010E94CD068091F1
:10041000CE019091CF0101969093CF018093CE01B0
:100420006091D0010E94CD061092CF011092CE01B2
:1004300089E191E00E94A1009FC18091CE0190913D
:10044000CF0101969093CF018093CE012F5F3F4F54
:1004500002C020E030E0293031057CF36091D30107
:100460008091CE019091CF010E94CD068091CE0166
:100470009091CF0101969093CF018093CE0160912E
:10048000D2010E94CD068091CE019091CF010196BC
:100490009093CF018093CE016091D1010E94CD064F
:1004A0008091CE019091CF0101969093CF018093DE
:1004B000CE016091D0010E94CD061092CF01109222
:1004C000CE0182E391E00E94A10056C18091CE014D
:1004D0009091CF0101969093CF018093CE012F5F31
:1004E0003F4F02C020E030E02D3031057CF36091B9
:1004F000D3018091CE019091CF010E94CD068091D1
:10050000CE019091CF0101969093CF018093CE01BF
:100510006091D2010E94CD068091CE019091CF01D1
:1005200001969093CF018093CE016091D1010E94FA
:10053000CD068091CE019091CF0101969093CF018D
:100540008093CE016091D0010E94CD061092CF0120
:100550001092CE018BE491E00E94A1000DC1823087
:1005600009F00AC1F8948091C901823009F448C0A9
:1005700018F4813041F0FAC0833009F482C084302D
:1005800009F4C0C0F3C01092CF011092CE0180E0F8
:1005900090E00E94C5068093CD0181E090E09093A9
:1005A000CF018093CE010E94C5068093CC0182E0EA
:1005B00090E09093CF018093CE010E94C506809376
:1005C000CB0183E090E09093CF018093CE010E9415
:1005D000C5068093CA011092CF011092CE0184E625
:1005E00091E00E94A100C2C08091CE019091CF0104
:1005F00001969093CF018093CE012F5F3F4F02C0B1
:1006000020E030E0253031057CF3C091CE01D0915F
:10061000CF01CE010E94C5068093CD012196D093D3
:10062000CF01C093CE01CE010E94C5068093CC01BC
:100630002196D093CF01C093CE01CE010E94C50672
:100640008093CB01CE0101969093CF018093CE0190
:100650000E94C5068093CA011092CF011092CE016C
:100660008DE791E00E94A10081C08091CE01909120
:10067000CF0101969093CF018093CE012F5F3F4F22
:1006800002C020E030E0293031057CF3C091CE017A
:10069000D091CF01CE010E94C5068093CD01219655
:1006A000D093CF01C093CE01CE010E94C5068093A6
:1006B000CC012196D093CF01C093CE01CE010E94F0
:1006C000C5068093CB01CE0101969093CF01809314
:1006D000CE010E94C5068093CA011092CF011092EC
:1006E000CE0186E991E00E94A10040C08091CE0138
:1006F0009091CF0101969093CF018093CE012F5F0F
:100700003F4F02C020E030E02D3031057CF3C09136
:10071000CE01D091CF01CE010E94C5068093CD01BC
:100720002196D093CF01C093CE01CE010E94C50681
:100730008093CC012196D093CF01C093CE01CE01FE
:100740000E94C5068093CB01CE0101969093CF0104
:100750008093CE010E94C5068093CA011092CF01FA
:100760001092CE018FEA91E00E94A100789410923D
:10077000C90102C01092D401FF91EF91DF91CF9196
:10078000BF91AF919F918F917F916F915F914F91A9
:100790003F912F910F900FBE0F901F9018951F92B1
:1007A0000F920FB60F9211248F93EF93FF938091C6
:1007B0007C008F708093C801873059F48091790054
:1007C0008093D301ECE7F0E08081807F86608083B6
:1007D00024C0863059F4809179008093D201ECE7EF
:1007E000F0E08081807F8560808317C0853059F478
:1007F000809179008093D101ECE7F0E08081807FE7
:10080000846080830AC0809179008093D001ECE7F6
:10081000F0E08081807F87608083EAE7F0E080817C
:1008200080618083FF91EF918F910F900FBE0F90A9
:100830001F9018959AB190669AB914BC15BC813076
:1008400039F484B5806C84BD84B5806384BD06C0F2
:1008500084B5806884BD84B5806284BD84B58360BE
:1008600084BD60347105C1F038F46115710561F023
:100870006830710569F01CC0611581E0780781F06E
:100880006115744089F014C085B5816085BD0895F7
:1008900085B5826085BD089585B5836085BD089561
:1008A00085B5846085BD089585B5856085BD08954D
:1008B00085B5816085BD0895CF93DF93C62F682FDE
:1008C00070E080E090E00E94CC052DEC3CEC4CE424
:1008D0005DE30E94580620E030E040E051E40E94D1
:1008E0002F050E949B05D62F6C2F70E080E090E0D2
:1008F0000E94CC052DEC3CEC4CE45DE30E945806D4
:1009000020E030E040E051E40E942F050E949B056A
:10091000D7BD68BDDF91CF91089594B1966094B929
:100920001092800010928100813049F4E0E8F0E0FC
:100930008081806C808380818063808308C0E0E850
:10094000F0E0808180688083808180628083603471
:100950007105E1F038F46115710561F068307105D9
:1009600079F026C0611581E07807B1F06115744017
:10097000C9F01EC0E1E8F0E08081816080831DC085
:10098000E1E8F0E080818260808317C0E1E8F0E078
:1009900080818360808311C0E1E8F0E08081846021
:1009A00080830BC0E1E8F0E080818560808305C032
:1009B000E1E8F0E0808181608083E0E8F0E0808120
:1009C00082608083E1E8F0E080818860808380EA53
:1009D00090E090938700809386000895CF93DF93F3
:1009E000D62F682F70E080E090E00E94CC052DECBF
:1009F0003CEC4CE45DE30E94580628EB3EE145E9FF
:100A000050E40E942F050E949B05C62F6093D801D9
:100A10006D2F70E080E090E00E94CC052DEC3CEC66
:100A20004CE45DE30E94580628EB3EE145E950E4C2
:100A30000E942F050E949B056093D7016C2F70E0E8
:100A400070938900609388008091D70190E0909323
:100A50008B0080938A00DF91CF9108955058BB2777
:100A6000AA270E9446050C941E060E94100638F024
:100A70000E94170620F039F49F3F19F426F40C94D5
:100A80000D060EF4E095E7FB0C940706E92F0E9493
:100A90002F0658F3BA17620773078407950720F0EB
:100AA00079F4A6F50C9451060EF4E0950B2EBA2FAE
:100AB000A02D0B01B90190010C01CA01A001112464
:100AC000FF27591B99F0593F50F4503E68F11A1610
:100AD000F040A22F232F342F4427585FF3CF4695A1
:100AE00037952795A795F0405395C9F77EF41F16C3
:100AF000BA0B620B730B840BBAF09150A1F0FF0F8D
:100B0000BB1F661F771F881FC2F70EC0BA0F621F78
:100B1000731F841F48F4879577956795B795F79568
:100B20009E3F08F0B0CF9395880F08F09927EE0FFD
:100B30009795879508950E94370688F09F5798F0FB
:100B4000B92F9927B751B0F0E1F0660F771F881FD2
:100B5000991F1AF0BA95C9F714C0B13091F00E94EC
:100B60005106B1E008950C945106672F782F88271D
:100B7000B85F39F0B93FCCF3869577956795B39513
:100B8000D9F73EF490958095709561957F4F8F4F82
:100B90009F4F0895E89409C097FB3EF49095809587
:100BA000709561957F4F8F4F9F4F9923A9F0F92F33
:100BB00096E9BB279395F695879577956795B795B1
:100BC000F111F8CFFAF4BB0F11F460FF1BC06F5F97
:100BD0007F4F8F4F9F4F16C0882311F096E911C0A9
:100BE000772321F09EE8872F762F05C0662371F0CA
:100BF00096E8862F70E060E02AF09A95660F771FDE
:100C0000881FDAF7880F9695879597F9089597F9D1
:100C10009F6780E870E060E008959FEF80EC0895A2
:100C200000240A94161617061806090608950024CB
:100C30000A9412161306140605060895092E039445
:100C4000000C11F4882352F0BB0F40F4BF2B11F4B9
:100C500060FF04C06F5F7F4F8F4F9F4F089557FD18
:100C60009058440F551F59F05F3F71F04795880F1A
:100C700097FB991F61F09F3F79F0879508951216B1
:100C800013061406551FF2CF4695F1DF08C016165D
:100C900017061806991FF1CF86957105610508940E
:100CA0000895E894BB2766277727CB0197F9089525
:100CB0000E946B060C941E060E94100638F00E94DB
:100CC000170620F0952311F00C9407060C940D06DE
:100CD00011240C9452060E942F0670F3959FC1F3C5
:100CE000950F50E0551F629FF001729FBB27F00DDA
:100CF000B11D639FAA27F00DB11DAA1F649F66272F
:100D0000B00DA11D661F829F2227B00DA11D621F7D
:100D1000739FB00DA11D621F839FA00D611D221F37
:100D2000749F3327A00D611D231F849F600D211D1B
:100D3000822F762F6A2F11249F5750409AF0F1F09E
:100D400088234AF0EE0FFF1FBB1F661F771F881F07
:100D500091505040A9F79E3F510580F00C94070632
:100D60000C9452065F3FE4F3983ED4F38695779552
:100D70006795B795F795E7959F5FC1F7FE2B880FAD
:100D8000911D9695879597F90895F999FECF92BD93
:100D900081BDF89A992780B50895262FF999FECF3D
:100DA0001FBA92BD81BD20BD0FB6F894FA9AF99A88
:0A0DB0000FBE01960895F894FFCFDE
:100DBA0053652067756172646F206C6120706F7370
:100DCA006963696F6E20310A005365206775617225
:100DDA00646F206C6120706F736963696F6E203273
:100DEA000A0053652067756172646F206C61207018
:100DFA006F736963696F6E20330A005365206775E4
:100E0A006172646F206C6120706F736963696F6EC1
:100E1A0020340A004D6F737472616E646F206C61C6
:100E2A0020706F736963696F6E20310A004D6F73AA
:100E3A007472616E646F206C6120706F736963698C
:100E4A006F6E20320A004D6F737472616E646F2088
:100E5A006C6120706F736963696F6E20330A004D8D
:100E6A006F737472616E646F206C6120706F736946
:080E7A0063696F6E20340A0069
:00000001FF
