S012000070726F796563746F5F322E737265630C
S11300000C9434000C94FC000C9446000C944600B0
S11300100C9411010C9446000C9446000C94460078
S11300200C9446000C9446000C9446000C94460034
S11300300C9446000C9446000C9446000C94460024
S11300400C9446000C9446000C9446000C94460014
S11300500C9446000C9493030C9446000C944600B4
S11300600C9446000C94460011241FBECFEFD8E038
S1130070DEBFCDBF21E0A0E0B1E001C01D92A131FF
S1130080B207E1F70E9496000C949F060C940000BE
S1130090F89417B8E9E6F0E01082808182608083EA
S11300A01DBA8DB381608DBBE8E6F0E010828081DB
S11300B082608083ECE6F0E080818F6080837894B6
S11300C00895ACE7B0E01C92EAE7F0E010828C916E
S11300D080648C938C9180628C9310828081886878
S11300E0808380818760808310927B0008958AB129
S11300F08E7F8AB98AB182608AB9E0ECF0E010821E
S1130100808182608083E1ECF0E0108280818869E4
S11301108083E2ECF0E010828081866080838FEC43
S113012090E09093C5008093C4000895E1E6F0E068
S113013080E8808381E08083F8940E94770060E007
S113014074E080E00E94DE0360E074E080E00E94DE
S113015051040E9461000E94480078941FBAEAE7A3
S1130160F0E080818064808380910E01811119C048
S11301708BB1877F8BB98BB18F7E8BB960910A016C
S113018080910B010E94B2046091080180910901E1
S11301900E9420048FE39CE90197F1F700C000005E
S11301A0DECF813039F48BB180618BB98BB1877F1D
S11301B08BB9D5CF8230C9F48BB188608BB98BB140
S11301C08F7E8BB960910401809105010E94B20475
S11301D060910201809103010E9420048FE39CE955
S11301E00197F1F700C00000BACF833009F0B7CF10
S11301F08BB188618BB9B3CF1F920F920FB60F9258
S113020011248F9380910E018F5F80930E018430AF
S113021010F010920E018F910F900FBE0F901F904F
S113022018951F920F920FB60F9211242F933F939C
S11302304F935F936F937F938F939F93AF93BF93EA
S1130240CF93DF93EF93FF9386B18F7080930D016B
S113025090910C01911152C290910E0191509230E3
S1130260B8F58E3061F48BB180688BB981E08093EE
S1130270010180910C018F5F80930C0129C08D30A6
S113028061F48BB18F778BB982E080930101809107
S11302900C018F5F80930C011BC08B3061F485B11E
S11302A0816085B983E08093010180910C018F5FA7
S11302B080930C010DC0873059F485B18E7F85B9C8
S11302C084E08093010180910C018F5F80930C0185
S11302D080910E01813009F016C1F89480910101DA
S11302E0823009F44DC018F4813041F009C28330E2
S11302F009F48BC0843009F4CDC002C21092070106
S11303001092060160910B0180E090E00E9491063A
S113031080910601909107010196909307018093C3
S1130320060160910A010E94910680910601909154
S113033007010196909307018093060160910901DA
S11303400E94910680910601909107010196909375
S1130350070180930601609108010E9491061092A2
S1130360070110920601CCC180910601909107010A
S1130370019690930701809306012F5F3F4F02C0BF
S113038020E030E0253031057CF360910B01809151
S11303900601909107010E949106809106019091B7
S11303A007010196909307018093060160910A0169
S11303B00E94910680910601909107010196909305
S11303C0070180930601609109010E9491068091C2
S11303D0060190910701019690930701809306010D
S11303E0609108010E949106109207011092060183
S11303F087C18091060190910701019690930701AE
S1130400809306012F5F3F4F02C020E030E0293087
S113041031057CF360910B018091060190910701F5
S11304200E94910680910601909107010196909394
S113043007018093060160910A010E949106809150
S1130440060190910701019690930701809306019C
S1130450609109010E949106809106019091070123
S113046001969093070180930601609108010E9410
S11304709106109207011092060142C18091060173
S113048090910701019690930701809306012F5FD5
S11304903F4F02C020E030E02D3031057CF3609105
S11304A00B0180910601909107010E9491068091B1
S11304B0060190910701019690930701809306012C
S11304C060910A010E9491068091060190910701B2
S11304D001969093070180930601609109010E949F
S11304E0910680910601909107010196909307016E
S11304F080930601609108010E9491061092070101
S113050010920601FDC0823009F0FAC0F89480917F
S11305100101823009F444C018F4813041F0EAC08A
S1130520833009F47AC0843009F4B4C0E3C0109273
S113053007011092060180E090E00E9489068093F2
S1130540050181E090E090930701809306010E94E9
S113055089068093040182E090E0909307018093E0
S113056006010E9489068093030183E090E0909342
S11305700701809306010E9489068093020110926C
S1130580070110920601B6C08091060190910701FF
S1130590019690930701809306012F5F3F4F02C09D
S11305A020E030E0253031057CF3C0910601D09184
S11305B00701CE010E948906809305012196D093FC
S11305C00701C0930601CE010E94890680930401AD
S11305D02196D0930701C0930601CE010E9489069B
S11305E080930301CE010196909307018093060145
S11305F00E9489068093020110920701109206015D
S113060079C08091060190910701019690930701AA
S1130610809306012F5F3F4F02C020E030E0293075
S113062031057CF3C0910601D0910701CE010E94EF
S11306308906809305012196D0930701C093060192
S1130640CE010E948906809304012196D09307016C
S1130650C0930601CE010E94890680930301CE0156
S1130660019690930701809306010E948906809366
S1130670020110920701109206013CC0809106010C
S113068090910701019690930701809306012F5FD3
S11306903F4F02C020E030E02D3031057CF3C091A3
S11306A00601D0910701CE010E94890680930501BD
S11306B02196D0930701C0930601CE010E948906BA
S11306C0809304012196D0930701C0930601CE01C3
S11306D00E94890680930301CE010196909307013D
S11306E0809306010E9489068093020110920701FB
S11306F01092060178941092010102C010920C012C
S1130700FF91EF91DF91CF91BF91AF919F918F9125
S11307107F916F915F914F913F912F910F900FBEF9
S11307200F901F9018951F920F920FB60F921124DD
S11307308F93EF93FF9380917C008F7080930001DF
S1130740873059F48091790080930B01ECE7F0E055
S11307508081807F8660808324C0863059F48091B4
S1130760790080930A01ECE7F0E08081807F856066
S1130770808317C0853059F48091790080930901F2
S1130780ECE7F0E08081807F846080830AC0809100
S1130790790080930801ECE7F0E08081807F876036
S11307A08083EAE7F0E0808180618083FF91EF91AC
S11307B08F910F900FBE0F901F9018959AB190666D
S11307C09AB914BC15BC813039F484B5806C84BDED
S11307D084B5806384BD06C084B5806884BD84B557
S11307E0806284BD84B5836084BD60347105C1F0CA
S11307F038F46115710561F06830710569F01CC049
S1130800611581E0780781F06115744089F014C0A6
S113081085B5816085BD089585B5826085BD0895DF
S113082085B5836085BD089585B5846085BD0895CB
S113083085B5856085BD089585B5816085BD0895BC
S1130840CF93DF93C62F682F70E080E090E00E9482
S113085090052DEC3CEC4CE45DE30E941C0620E08A
S113086030E040E051E40E94F3040E945F05D62F7B
S11308706C2F70E080E090E00E9490052DEC3CEC41
S11308804CE45DE30E941C0620E030E040E051E4CB
S11308900E94F3040E945F05D7BD68BDDF91CF912C
S11308A0089594B1966094B91092800010928100DA
S11308B0813049F4E0E8F0E08081806C80838081BD
S11308C08063808308C0E0E8F0E0808180688083F2
S11308D080818062808360347105E1F038F46115B1
S11308E0710561F06830710579F026C0611581E009
S11308F07807B1F061157440C9F01EC0E1E8F0E07A
S11309008081816080831DC0E1E8F0E080818260A5
S1130910808317C0E1E8F0E080818360808311C0A8
S1130920E1E8F0E08081846080830BC0E1E8F0E0DE
S113093080818560808305C0E1E8F0E0808181608A
S11309408083E0E8F0E0808182608083E1E8F0E089
S113095080818860808380EA90E090938700809310
S113096086000895CF93DF93D62F682F70E080E040
S113097090E00E9490052DEC3CEC4CE45DE30E9479
S11309801C0628EB3EE145E950E40E94F3040E9472
S11309905F05C62F609310016D2F70E080E090E03A
S11309A00E9490052DEC3CEC4CE45DE30E941C0697
S11309B028EB3EE145E950E40E94F3040E945F0500
S11309C060930F016C2F70E070938900609388002E
S11309D080910F0190E090938B0080938A00DF91C7
S11309E0CF9108955058BB27AA270E940A050C945A
S11309F0E2050E94D40538F00E94DB0520F039F4AA
S1130A009F3F19F426F40C94D1050EF4E095E7FB0E
S1130A100C94CB05E92F0E94F30558F3BA1762072B
S1130A2073078407950720F079F4A6F50C9415064E
S1130A300EF4E0950B2EBA2FA02D0B01B9019001F5
S1130A400C01CA01A0011124FF27591B99F0593F39
S1130A5050F4503E68F11A16F040A22F232F342F81
S1130A604427585FF3CF469537952795A795F040CF
S1130A705395C9F77EF41F16BA0B620B730B840BE4
S1130A80BAF09150A1F0FF0FBB1F661F771F881F9C
S1130A90C2F70EC0BA0F621F731F841F48F48795F4
S1130AA077956795B795F7959E3F08F0B0CF9395E6
S1130AB0880F08F09927EE0F9795879508950E945F
S1130AC0FB0588F09F5798F0B92F9927B751B0F0DC
S1130AD0E1F0660F771F881F991F1AF0BA95C9F7BE
S1130AE014C0B13091F00E941506B1E008950C9441
S1130AF01506672F782F8827B85F39F0B93FCCF3F4
S1130B00869577956795B395D9F73EF4909580953A
S1130B10709561957F4F8F4F9F4F0895E89409C05A
S1130B2097FB3EF490958095709561957F4F8F4F1C
S1130B309F4F9923A9F0F92F96E9BB279395F69532
S1130B40879577956795B795F111F8CFFAF4BB0FB0
S1130B5011F460FF1BC06F5F7F4F8F4F9F4F16C014
S1130B60882311F096E911C0772321F09EE8872F9E
S1130B70762F05C0662371F096E8862F70E060E05A
S1130B802AF09A95660F771F881FDAF7880F9695D3
S1130B90879597F9089597F99F6780E870E060E07A
S1130BA008959FEF80EC089500240A941616170602
S1130BB018060906089500240A941216130614064A
S1130BC005060895092E0394000C11F4882352F0AD
S1130BD0BB0F40F4BF2B11F460FF04C06F5F7F4F65
S1130BE08F4F9F4F089557FD9058440F551F59F04C
S1130BF05F3F71F04795880F97FB991F61F09F3F06
S1130C0079F087950895121613061406551FF2CF2E
S1130C104695F1DF08C0161617061806991FF1CF7E
S1130C2086957105610508940895E894BB276627A5
S1130C307727CB0197F908950E942F060C94E205BB
S1130C400E94D40538F00E94DB0520F0952311F0B2
S1130C500C94CB050C94D10511240C9416060E9417
S1130C60F30570F3959FC1F3950F50E0551F629FF4
S1130C70F001729FBB27F00DB11D639FAA27F00DF1
S1130C80B11DAA1F649F6627B00DA11D661F829F18
S1130C902227B00DA11D621F739FB00DA11D621FFD
S1130CA0839FA00D611D221F749F3327A00D611D1A
S1130CB0231F849F600D211D822F762F6A2F1124FC
S1130CC09F5750409AF0F1F088234AF0EE0FFF1F2F
S1130CD0BB1F661F771F881F91505040A9F79E3F86
S1130CE0510580F00C94CB050C9416065F3FE4F399
S1130CF0983ED4F3869577956795B795F795E795DC
S1130D009F5FC1F7FE2B880F911D9695879597F9E4
S1130D100895F999FECF92BD81BDF89A992780B5BF
S1130D200895262FF999FECF1FBA92BD81BD20BD2B
S1130D300FB6F894FA9AF99A0FBE01960895F894AA
S1050D40FFCFDF
S9030000FC
