S012000070726F796563746F5F322E737265630C
S11300000C9434000C9412010C9446000C94460099
S11300100C9427010C9446000C9446000C94460062
S11300200C9446000C9446000C9446000C94460034
S11300300C9446000C9446000C9446000C94460024
S11300400C9446000C9446000C9496000C944600C4
S11300500C9446000C94B5030C9446000C94460092
S11300600C9446000C94460011241FBECFEFD8E038
S1130070DEBFCDBF21E0A0E0B1E001C01D92A331FD
S1130080B207E1F70E94B9000C94C1060C94000079
S1130090F89417B8E9E6F0E01082808182608083EA
S11300A01DBA8DB381608DBBE8E6F0E010828081DB
S11300B082608083ECE6F0E080818F6080837894B6
S11300C00895ACE7B0E01C92EAE7F0E010828C916E
S11300D080648C938C9180628C9310828081886878
S11300E0808380818760808310927B0008958AB129
S11300F08E7F8AB98AB182608AB9E0ECF0E010821E
S1130100808182608083E1ECF0E0108280818869E4
S11301108083E2ECF0E010828081866080838FEC43
S113012090E09093C5008093C40008951F920F92AD
S11301300FB60F9211248F938091C6008093120101
S11301408091C00085FFFCCF809112018093020151
S1130150803349F480910F018F5F80930F018430C5
S113016010F010920F018F910F900FBE0F901F90FF
S11301701895E1E6F0E080E8808381E08083F894DC
S11301800E94770060E074E080E00E94000460E078
S113019074E080E00E9473040E9461000E944800A1
S11301A078941FBAEAE7F0E08081806480838091CC
S11301B00F01811119C08BB1877F8BB98BB18F7EF1
S11301C08BB960910B0180910C010E94D404609161
S11301D0090180910A010E9442048FE39CE901977E
S11301E0F1F700C00000DECF813039F48BB18061BB
S11301F08BB98BB1877F8BB9D5CF823069F48BB142
S113020088608BB98BB18F7E8BB98FE39CE90197A2
S1130210F1F700C00000C6CF833021F68BB18861AE
S11302208BB9C0CF1F920F920FB60F9211248F93E8
S113023080910F018F5F80930F01843010F0109232
S11302400F018F910F900FBE0F901F9018951F9262
S11302500F920FB60F9211242F933F934F935F93F6
S11302606F937F938F939F93AF93BF93CF93DF93BA
S1130270EF93FF9386B18F7080930E0190910D01DF
S113028091115EC290910F0191509230B8F58E3069
S113029061F48BB180688BB981E080930101809116
S11302A00D018F5F80930D0129C08D3061F48BB1F6
S11302B08F778BB982E08093010180910D018F5F6C
S11302C080930D011BC08B3061F485B1816085B9C9
S11302D083E08093010180910D018F5F80930D0174
S11302E00DC0873059F485B18E7F85B984E0809341
S11302F0010180910D018F5F80930D0180910F01A9
S1130300813009F016C1F89480910101823009F41A
S11303104DC018F4813041F015C2833009F48BC00C
S1130320843009F4CDC00EC2109208011092070166
S113033060910C0180E090E00E94B3068091070177
S113034090910801019690930801809307016091B0
S11303500B010E94B3068091070190910801019658
S1130360909308018093070160910A010E94B306EB
S11303708091070190910801019690930801809360
S11303800701609109010E94B306109208011092BE
S11303900701D8C1809107019091080101969093BB
S11303A00801809307012F5F3F4F02C020E030E037
S11303B0253031057CF360910C0180910701909107
S11303C008010E94B30680910701909108010196EB
S11303D0909308018093070160910B010E94B3067A
S11303E080910701909108010196909308018093F0
S11303F0070160910A010E94B30680910701909160
S11304000801019690930801809307016091090106
S11304100E94B306109208011092070193C18091C3
S113042007019091080101969093080180930701B8
S11304302F5F3F4F02C020E030E0293031057CF3CC
S113044060910C0180910701909108010E94B3060C
S1130450809107019091080101969093080180937F
S1130460070160910B010E94B306809107019091EE
S113047008010196909308018093070160910A0195
S11304800E94B30680910701909108010196909310
S1130490080180930701609109010E94B30610923C
S11304A00801109207014EC1809107019091080143
S11304B0019690930801809307012F5F3F4F02C07C
S11304C020E030E02D3031057CF360910C01809107
S11304D00701909108010E94B30680910701909151
S11304E008010196909308018093070160910B0124
S11304F00E94B306809107019091080101969093A0
S113050008018093070160910A010E94B30680915B
S113051007019091080101969093080180930701C7
S1130520609109010E94B30610920801109207011C
S113053009C1823009F006C1F8948091010182302A
S113054009F444C018F4813041F0EAC0833009F45E
S11305507AC0843009F4B4C0E3C010920801109248
S1130560070180E090E00E94AB068093060181E0E1
S113057090E090930801809307010E94AB0680935A
S1130580050182E090E090930801809307010E94A6
S1130590AB068093040183E090E09093080180937C
S11305A007010E94AB068093030110920801109288
S11305B00701B6C0809107019091080101969093BC
S11305C00801809307012F5F3F4F02C020E030E015
S11305D0253031057CF3C0910701D0910801CE018B
S11305E00E94AB06809306012196D0930801C09324
S11305F00701CE010E94AB06809305012196D0939A
S11306000801C0930701CE010E94AB068093040148
S1130610CE01019690930801809307010E94AB06D6
S113062080930301109208011092070179C0809110
S113063007019091080101969093080180930701A6
S11306402F5F3F4F02C020E030E0293031057CF3BA
S1130650C0910701D0910801CE010E94AB0680939E
S113066006012196D0930801C0930701CE010E9490
S1130670AB06809305012196D0930801C09307012E
S1130680CE010E94AB0680930401CE0101969093A3
S11306900801809307010E94AB0680930301109226
S11306A00801109207013CC0809107019091080154
S11306B0019690930801809307012F5F3F4F02C07A
S11306C020E030E02D3031057CF3C0910701D0915A
S11306D00801CE010E94AB06809306012196D093B7
S11306E00801C0930701CE010E94AB068093050167
S11306F02196D0930801C0930701CE010E94AB0656
S113070080930401CE010196909308018093070120
S11307100E94AB0680930301109208011092070116
S1130720789460910501809106010E94D40460913F
S11307300301809104010E9442041092010102C04D
S113074010920D01FF91EF91DF91CF91BF91AF9185
S11307509F918F917F916F915F914F913F912F91D5
S11307600F900FBE0F901F9018951F920F920FB607
S11307700F9211248F93EF93FF9380917C008F70DD
S113078080930001873059F48091790080930C01A3
S1130790ECE7F0E08081807F8660808324C086302F
S11307A059F48091790080930B01ECE7F0E08081AB
S11307B0807F8560808317C0853059F480917900EB
S11307C080930A01ECE7F0E08081807F846080837D
S11307D00AC08091790080930901ECE7F0E0808100
S11307E0807F87608083EAE7F0E080818061808396
S11307F0FF91EF918F910F900FBE0F901F9018955E
S11308009AB190669AB914BC15BC813039F484B598
S1130810806C84BD84B5806384BD06C084B5806863
S113082084BD84B5806284BD84B5836084BD603436
S11308307105C1F038F46115710561F06830710516
S113084069F01CC0611581E0780781F0611574407E
S113085089F014C085B5816085BD089585B5826031
S113086085BD089585B5836085BD089585B584608B
S113087085BD089585B5856085BD089585B581607C
S113088085BD0895CF93DF93C62F682F70E080E075
S113089090E00E94B20529E23CE54FE05DE30E944E
S11308A03E0624EA30E745E950E40E9415050E941B
S11308B08105D62F6C2F70E080E090E00E94B20595
S11308C02AE037ED43EA5CE30E943E0624EA30E77F
S11308D045E950E40E9415050E948105D7BD68BD15
S11308E0DF91CF91089594B1966094B910928000ED
S11308F010928100813049F4E0E8F0E08081806C5E
S1130900808380818063808308C0E0E8F0E0808198
S11309108068808380818062808360347105E1F027
S113092038F46115710561F06830710579F026C0FD
S1130930611581E07807B1F061157440C9F01EC0FB
S1130940E1E8F0E08081816080831DC0E1E8F0E0AF
S113095080818260808317C0E1E8F0E08081836059
S1130960808311C0E1E8F0E08081846080830BC063
S1130970E1E8F0E080818560808305C0E1E8F0E093
S1130980808181608083E0E8F0E080818260808300
S1130990E1E8F0E080818860808380EA90E09093D1
S11309A08700809386000895CF93DF93D62F682F16
S11309B070E080E090E00E94B2052BE13FE24DED53
S11309C05CE30E943E0628EB3EE145E950E40E94C8
S11309D015050E948105C62F609311016D2F70E0EB
S11309E080E090E00E94B2052BE13FE24DED5CE334
S11309F00E943E0628EB3EE145E950E40E941505BD
S1130A000E948105609310016C2F70E0709389003F
S1130A10609388008091100190E090938B00809304
S1130A208A00DF91CF9108955058BB27AA270E94CE
S1130A302C050C9404060E94F60538F00E94FD056E
S1130A4020F039F49F3F19F426F40C94F3050EF4C6
S1130A50E095E7FB0C94ED05E92F0E94150658F389
S1130A60BA17620773078407950720F079F4A6F58F
S1130A700C9437060EF4E0950B2EBA2FA02D0B0123
S1130A80B90190010C01CA01A0011124FF27591BCF
S1130A9099F0593F50F4503E68F11A16F040A22FD5
S1130AA0232F342F4427585FF3CF46953795279546
S1130AB0A795F0405395C9F77EF41F16BA0B620B45
S1130AC0730B840BBAF09150A1F0FF0FBB1F661F8C
S1130AD0771F881FC2F70EC0BA0F621F731F841FCF
S1130AE048F4879577956795B795F7959E3F08F0F5
S1130AF0B0CF9395880F08F09927EE0F97958795B7
S1130B0008950E941D0688F09F5798F0B92F9927E1
S1130B10B751B0F0E1F0660F771F881F991F1AF0E4
S1130B20BA95C9F714C0B13091F00E943706B1E00C
S1130B3008950C943706672F782F8827B85F39F00B
S1130B40B93FCCF3869577956795B395D9F73EF47D
S1130B5090958095709561957F4F8F4F9F4F089525
S1130B60E89409C097FB3EF4909580957095619543
S1130B707F4F8F4F9F4F9923A9F0F92F96E9BB27F9
S1130B809395F695879577956795B795F111F8CF75
S1130B90FAF4BB0F11F460FF1BC06F5F7F4F8F4FE0
S1130BA09F4F16C0882311F096E911C0772321F0D6
S1130BB09EE8872F762F05C0662371F096E8862F6E
S1130BC070E060E02AF09A95660F771F881FDAF7C5
S1130BD0880F9695879597F9089597F99F6780E808
S1130BE070E060E008959FEF80EC089500240A947B
S1130BF01616170618060906089500240A941216F4
S1130C001306140605060895092E0394000C11F426
S1130C10882352F0BB0F40F4BF2B11F460FF04C0D3
S1130C206F5F7F4F8F4F9F4F089557FD9058440F2C
S1130C30551F59F05F3F71F04795880F97FB991F37
S1130C4061F09F3F79F087950895121613061406F4
S1130C50551FF2CF4695F1DF08C016161706180681
S1130C60991FF1CF86957105610508940895E8945C
S1130C70BB2766277727CB0197F908950E94510671
S1130C800C9404060E94F60538F00E94FD0520F03D
S1130C90952311F00C94ED050C94F30511240C9498
S1130CA038060E94150670F3959FC1F3950F50E026
S1130CB0551F629FF001729FBB27F00DB11D639F0A
S1130CC0AA27F00DB11DAA1F649F6627B00DA11DB0
S1130CD0661F829F2227B00DA11D621F739FB00D56
S1130CE0A11D621F839FA00D611D221F749F3327C6
S1130CF0A00D611D231F849F600D211D822F762F5F
S1130D006A2F11249F5750409AF0F1F088234AF03B
S1130D10EE0FFF1FBB1F661F771F881F91505040A7
S1130D20A9F79E3F510580F00C94ED050C9438060C
S1130D305F3FE4F3983ED4F3869577956795B7952E
S1130D40F795E7959F5FC1F7FE2B880F911D969548
S1130D50879597F90895F999FECF92BD81BDF89AC8
S1130D60992780B50895262FF999FECF1FBA92BD11
S1130D7081BD20BD0FB6F894FA9AF99A0FBE019678
S1090D800895F894FFCF72
S9030000FC
