:100000000C9434000C94FF000C9446000C944600B1
:100010000C9414010C9446000C9446000C94460079
:100020000C9446000C9446000C9446000C94460038
:100030000C9446000C9446000C9446000C94460028
:100040000C9446000C9446000C9446000C94460018
:100050000C9446000C9469010C9446000C944600E4
:100060000C9446000C94460011241FBECFEFD8E03C
:10007000DEBFCDBF21E0A0E0B1E001C01D92AB30FA
:10008000B207E1F70E94A7000C945F040C940000F3
:10009000F89417B8E9E6F0E01082808182608083EE
:1000A0001DBA8DB381608DBBE8E6F0E010828081DF
:1000B00082608083ECE6F0E080818F6080837894BA
:1000C0000895ACE7B0E01C92EAE7F0E010828C9172
:1000D00080648C938C9180628C931082808188687C
:1000E000808380818760808310927B0008958AB12D
:1000F0008E7F8AB98AB182608AB9E0ECF0E0108222
:10010000808182608083E1ECF0E0108280818869E8
:100110008083E2ECF0E010828081866080838FEC47
:1001200090E09093C5008093C4000895AC0120E056
:1001300007C09091C00095FFFCCF3093C6002F5FA1
:10014000FA01E20FF11D30813111F3CF0895E1E69C
:10015000F0E080E88083808181608083F8940E9451
:10016000770060E074E080E00E94B40160E074E039
:1001700080E00E9427020E9461000E9448001FBA8E
:10018000EAE7F0E08081806480838091080181113A
:1001900019C08BB1877F8BB98BB18F7E8BB9609182
:1001A0000401809105010E94880260910201809102
:1001B00003010E94F6018FE39CE90197F1F700C06B
:1001C0000000DECF813061F48BB180618BB98BB1DF
:1001D000877F8BB98091010190E00E949600D0CF7B
:1001E000823039F48BB188608BB98BB18F7E8BB93B
:1001F000C7CF833029F68BB188618BB9C1CF1F92ED
:100200000F920FB60F9211248F93809108018F5F88
:1002100080930801843010F0109208018F910F90A4
:100220000FBE0F901F9018951F920F920FB60F924E
:1002300011248F939F9386B18F70809307019091C3
:10024000060191113DC09091080191509230D0F576
:100250008E3061F48BB180688BB981E080930101AD
:10026000809106018F5F809306012CC08D3061F470
:100270008BB18F778BB982E0809301018091060169
:100280008F5F809306011EC08B3061F485B1816061
:1002900085B983E080930101809106018F5F80938F
:1002A000060110C0873071F485B18E7F85B984E076
:1002B00080930101809106018F5F8093060102C047
:1002C000109206019F918F910F900FBE0F901F907B
:1002D00018951F920F920FB60F9211248F93EF93E0
:1002E000FF9380917C008F7080930001873059F4D8
:1002F0008091790080930501ECE7F0E08081807FB8
:100300008660808324C0863059F480917900809380
:100310000401ECE7F0E08081807F8560808317C076
:10032000853059F48091790080930301ECE7F0E087
:100330008081807F846080830AC08091790080936F
:100340000201ECE7F0E08081807F87608083EAE74C
:10035000F0E0808180618083FF91EF918F910F9019
:100360000FBE0F901F9018959AB190669AB914BC61
:1003700015BC813039F484B5806C84BD84B580634C
:1003800084BD06C084B5806884BD84B5806284BDA8
:1003900084B5836084BD60347105C1F038F46115A3
:1003A000710561F06830710569F01CC0611581E06C
:1003B000780781F06115744089F014C085B58160BB
:1003C00085BD089585B5826085BD089585B5836036
:1003D00085BD089585B5846085BD089585B5856022
:1003E00085BD089585B5816085BD0895CF93DF9360
:1003F000C62F682F70E080E090E00E9466032DEC2D
:100400003CEC4CE45DE30E94F20320E030E040E08D
:1004100051E40E94C9020E943503D62F6C2F70E070
:1004200080E090E00E9466032DEC3CEC4CE45DE340
:100430000E94F20320E030E040E051E40E94C90253
:100440000E943503D7BD68BDDF91CF91089594B167
:10045000966094B91092800010928100813049F426
:10046000E0E8F0E08081806C80838081806380831D
:1004700008C0E0E8F0E0808180688083808180624D
:10048000808360347105E1F038F46115710561F025
:100490006830710579F026C0611581E07807B1F008
:1004A00061157440C9F01EC0E1E8F0E08081816010
:1004B00080831DC0E1E8F0E080818260808317C006
:1004C000E1E8F0E080818360808311C0E1E8F0E042
:1004D0008081846080830BC0E1E8F0E080818560EA
:1004E000808305C0E1E8F0E0808181608083E0E8FE
:1004F000F0E0808182608083E1E8F0E080818860C4
:10050000808380EA90E0909387008093860008952E
:10051000CF93DF93D62F682F70E080E090E00E94A9
:1005200066032DEC3CEC4CE45DE30E94F20328EB07
:100530003EE145E950E40E94C9020E943503C62FFE
:1005400060930A016D2F70E080E090E00E946603E6
:100550002DEC3CEC4CE45DE30E94F20328EB3EE121
:1005600045E950E40E94C9020E94350360930901E5
:100570006C2F70E07093890060938800809109016E
:1005800090E090938B0080938A00DF91CF91089543
:100590005058BB27AA270E94E0020C94B8030E947F
:1005A000AA0338F00E94B10320F039F49F3F19F4F8
:1005B00026F40C94A7030EF4E095E7FB0C94A1033A
:1005C000E92F0E94C90358F3BA176207730784071B
:1005D000950720F079F4A6F50C94EB030EF4E09562
:1005E0000B2EBA2FA02D0B01B90190010C01CA01ED
:1005F000A0011124FF27591B99F0593F50F4503E98
:1006000068F11A16F040A22F232F342F4427585F89
:10061000F3CF469537952795A795F0405395C9F7A1
:100620007EF41F16BA0B620B730B840BBAF0915059
:10063000A1F0FF0FBB1F661F771F881FC2F70EC0F8
:10064000BA0F621F731F841F48F4879577956795CB
:10065000B795F7959E3F08F0B0CF9395880F08F0B7
:100660009927EE0F9795879508950E94D10388F0FA
:100670009F5798F0B92F9927B751B0F0E1F0660F66
:10068000771F881F991F1AF0BA95C9F714C0B130A7
:1006900091F00E94EB03B1E008950C94EB03672FF7
:1006A000782F8827B85F39F0B93FCCF386957795D6
:1006B0006795B395D9F73EF49095809570956195BF
:1006C0007F4F8F4F9F4F0895E89409C097FB3EF4EA
:1006D00090958095709561957F4F8F4F9F4F99238F
:1006E000A9F0F92F96E9BB279395F695879577950D
:1006F0006795B795F111F8CFFAF4BB0F11F460FFCD
:100700001BC06F5F7F4F8F4F9F4F16C0882311F024
:1007100096E911C0772321F09EE8872F762F05C038
:10072000662371F096E8862F70E060E02AF09A95D3
:10073000660F771F881FDAF7880F9695879597F9C8
:10074000089597F99F6780E870E060E008959FEF53
:1007500080EC089500240A94161617061806090658
:10076000089500240A941216130614060506089527
:10077000092E0394000C11F4882352F0BB0F40F4AF
:10078000BF2B11F460FF04C06F5F7F4F8F4F9F4FEF
:10079000089557FD9058440F551F59F05F3F71F071
:1007A0004795880F97FB991F61F09F3F79F08795D8
:1007B0000895121613061406551FF2CF4695F1DF61
:1007C00008C0161617061806991FF1CF86957105F1
:1007D000610508940895E894BB2766277727CB0125
:1007E00097F908950E9405040C94B8030E94AA0387
:1007F00038F00E94B10320F0952311F00C94A1036E
:100800000C94A70311240C94EC030E94C90370F309
:10081000959FC1F3950F50E0551F629FF001729FA5
:10082000BB27F00DB11D639FAA27F00DB11DAA1FB4
:10083000649F6627B00DA11D661F829F2227B00D01
:10084000A11D621F739FB00DA11D621F839FA00D8C
:10085000611D221F749F3327A00D611D231F849FDC
:10086000600D211D822F762F6A2F11249F57504033
:100870009AF0F1F088234AF0EE0FFF1FBB1F661FAE
:10088000771F881F91505040A9F79E3F510580F077
:100890000C94A1030C94EC035F3FE4F3983ED4F373
:1008A000869577956795B795F795E7959F5FC1F71B
:1008B000FE2B880F911D9695879597F90895F894CA
:0208C000FFCF68
:00000001FF
